:100000000C9435000C9452000C9452000C94520045
:100010000C9452000C9452000C9452000C94520018
:100020000C9452000C9452000C9452000C94520008
:100030000C9452000C9452000C9452000C945200F8
:100040000C9454000C9452000C9452000C945200E6
:100050000C9452000C9452000C9452000C945200D8
:100060000C9452000C945200E80011241FBECFEFF4
:10007000D8E0DEBFCDBF21E0A0E0B1E001C01D921D
:10008000A631B207E1F710E0C5E3D0E004C0219744
:10009000FE010E94F800C433D107C9F70E949E00F8
:1000A0000C94FE000C9400001F920F920FB60F925A
:1000B00011242F933F938F939F93AF93BF9380917E
:1000C000120190911301A0911401B091150130918A
:1000D000110123E0230F2D3758F50196A11DB11D05
:1000E000209311018093120190931301A0931401A6
:1000F000B093150180910D0190910E01A0910F0117
:10010000B09110010196A11DB11D80930D01909336
:100110000E01A0930F01B0931001BF91AF919F9179
:100120008F913F912F910F900FBE0F901F901895B8
:1001300026E8230F0296A11DB11DD2CF789484B575
:10014000826084BD84B5816084BD85B5826085BDD3
:1001500085B5816085BD80916E00816080936E0061
:100160001092810080918100826080938100809153
:100170008100816080938100809180008160809304
:1001800080008091B10084608093B1008091B000C4
:1001900081608093B00080917A00846080937A00BF
:1001A00080917A00826080937A0080917A008160E9
:1001B00080937A0080917A00806880937A00109210
:1001C000C100C0E0D0E02097F1F30E940000FBCF17
:1001D000E0E0F1E08FEF80831282118214861386B3
:1001E0008FEF9FEFDC0187839087A187B287089507
:1001F000EE0FFF1F0590F491E02D0994F894FFCFC6
:00000001FF
