:100000000C9462000C947F000C947F000C947F0091
:100010000C947F000C947F000C947F000C94710171
:100020000C947F000C947F000C947F000C947F0054
:100030000C947F000C947F000C947F000C947F0044
:100040000C9427010C947F000C947F000C947F008B
:100050000C947F000C947F000C947F000C947F0024
:100060000C947F000C947F00000000002300260009
:1000700029000200000000240027002A00000000E0
:1000800000250028002B00040404040404040402D6
:100090000202020202030303030303010204081025
:1000A00020408001020408102001020408102000F2
:1000B0000000080002010000030407000000000027
:1000C0000000000011241FBECFEFD8E0DEBFCDBF7F
:1000D00011E0A0E0B1E0E8E0FAE002C005900D9286
:1000E000A830B107D9F721E0A8E0B1E001C01D9226
:1000F000A232B207E1F70E94F2010C9402050C94BF
:100100000000833081F028F4813099F08230A9F02A
:1001100008958730A9F08830C9F08430B1F4809117
:1001200080008F7D03C0809180008F778093800056
:10013000089584B58F7784BD089584B58F7DFBCFF6
:100140008091B0008F778093B00008958091B000C7
:100150008F7DF9CFCF93DF93282F30E0F901E15560
:10016000FF4F8491F901E556FF4FD491F901E9570A
:10017000FF4FC491CC2391F081110E948100EC2F9C
:10018000F0E0EE0FFF1FE358FF4FA591B4918FB73A
:10019000F894EC91D095DE23DC938FBFDF91CF9163
:1001A0000895CF93DF9390E0FC01E556FF4F249133
:1001B00089579F4FFC0184918823D1F090E0880FEC
:1001C000991FFC01ED58FF4FA591B491FC01E35834
:1001D000FF4FC591D491623071F49FB7F8943C9170
:1001E000822F809583238C93E8812E2B28839FBFB9
:1001F000DF91CF9108958FB7F894EC912E2B2C932B
:100200008FBFF6CF3FB7F89480911E0190911F01E8
:10021000A0912001B091210126B5A89B05C02F3FD8
:1002200019F00196A11DB11D3FBFBA2FA92F982F1C
:100230008827BC01CD01620F711D811D911D42E017
:10024000660F771F881F991F4A95D1F708951F924F
:100250000F920FB60F9211242F933F938F939F937A
:10026000AF93BF9380911A0190911B01A0911C0143
:10027000B0911D013091190123E0230F2D3758F55E
:100280000196A11DB11D2093190180931A0190932D
:100290001B01A0931C01B0931D0180911E01909140
:1002A0001F01A0912001B09121010196A11DB11D56
:1002B00080931E0190931F01A0932001B093210110
:1002C000BF91AF919F918F913F912F910F900FBE52
:1002D0000F901F90189526E8230F0296A11DB11DBF
:1002E000D2CF1F920F920FB60F9211242F933F93EC
:1002F0004F935F936F937F938F939F93AF93BF932E
:10030000EF93FF9380910D0190910E01A0910F0149
:10031000B0911001892B8A2B8B2BD1F19091080180
:10032000E0910901F0910A01808189278083809101
:100330000D0190910E01A0910F01B09110011816BE
:1003400019061A061B069CF480910D0190910E016E
:10035000A0910F01B09110010197A109B1098093FB
:100360000D0190930E01A0930F01B0931001FF9126
:10037000EF91BF91AF919F918F917F916F915F911D
:100380004F913F912F910F900FBE0F901F90189596
:1003900080910001E2E7F0E0E4919FEF909300018B
:1003A000E13049F028F0E23061F00E94AA00DFCF8E
:1003B00010926E00FACF90916F009D7F90936F0026
:1003C000F4CF909170009D7F9093700091E0909396
:1003D000B0009091B100987F94609093B10010921A
:1003E000B300E3CFCF93DF93CDB7DEB72A970FB635
:1003F000F894DEBF0FBECDBF789484B5826084BD13
:1004000084B5816084BD85B5826085BD85B5816018
:1004100085BD80916E00816080936E001092810096
:100420008091810082608093810080918100816051
:100430008093810080918000816080938000809112
:10044000B10084608093B1008091B000816080939E
:10045000B00080917A00846080937A0080917A0065
:10046000826080937A0080917A00816080937A0024
:1004700080917A00806880937A001092C10061E0D8
:100480008DE00E94D10062E084E00E94D10061E032
:100490008BE00E94D1008DE00E94AA00E3EBF0E027
:1004A0008491EFE9F0E0F490EBE8F0E014911111A1
:1004B000D5C086E0E1E0F1E0DE01119601900D92F9
:1004C0008A95E1F79E012F5F3F4F3A872987CE013A
:1004D000079698878F83E985FA8521903190FA876E
:1004E000E987809100018B3009F0CFC0E2E7F0E0AE
:1004F000149117FDB2C161E08BE00E94D10011237D
:1005000019F0123009F0D9C14101B12CA12C60E0E1
:1005100072E18AE790E0A50191010E94D4042901CB
:100520003A017A016901F1E0CF1AD108E108F10836
:100530002FEFC216D104E104F10409F00CF463C1F9
:1005400060E472E48FE090E0A50191010E94D40480
:1005500069017A0181E0C81AD108E108F108123076
:1005600009F008C182E09FEFC916D104E104F1044B
:1005700009F00CF46CC060E970ED83E090E0A50137
:1005800091010E94D40469017A01E1E0CE1AD108F8
:10059000E108F10883E0FFEFCF16D104E104F10494
:1005A00009F00CF454C068E478EE81E090E0A50115
:1005B00091010E94D40469017A0181E0C81AD1082E
:1005C000E108F10884E09FEFC916D104E104F104C9
:1005D000F1F1ECF164E274EF80E090E0A5019401A8
:1005E0000E94D40469017A0191E0C91AD108E10896
:1005F000F10885E03FEFC316D104E104F10439F1BD
:1006000030F162E17AE780E090E0A50194010E9478
:10061000D40469017A01E1E0CE1AD108E108F108B9
:1006200086E0FFEFCF16D104E104F10481F078F009
:10063000730162018AE0F594E794D794C7948A9590
:10064000D1F721E0C21AD108E108F10887E09091C2
:10065000B100987F892B8093B100DCC081110E948A
:100660008100E12FF0E0EE0FFF1FE859FF4FA59149
:10067000B491EC91FE2209F41CCF80E090E0892B2C
:1006800009F409CF0E94000006CF8F3F09F0E5C0B2
:100690008BE080930001E2E7F0E014911F3F09F442
:1006A000DCC0113029F150F0123009F440C017FDC0
:1006B000D4C061E08BE00E94D10023CF14BC15BCF4
:1006C00084B5826084BD85B5816085BDE2E9F0E0D6
:1006D0008491E82FF0E0EE0FFF1FE358FF4F859164
:1006E0009491E6EAF0E0849180930C0110E003CF4E
:1006F0001092800010928100809181008860809328
:10070000810080918100816080938100E2E9F0E0C6
:100710008491E82FF0E0EE0FFF1FE358FF4F859123
:100720009491E6EAF0E0849180930B01E4CE10927C
:10073000B0001092B1008091B00082608093B00050
:100740008091B10081608093B100E2E9F0E0849192
:10075000E82FF0E0EE0FFF1FE358FF4F85919491D3
:1007600090930A0180930901E6EAF0E08491809376
:100770000801C1CE2FEFC216D104E104F10409F043
:100780000CF499C068E478EE81E090E0A501910155
:100790000E94D40469017A0181E0C81AD108E108F5
:1007A000F10884E0111126CF83E02FEFC216D104A7
:1007B000E104F10459F154F162E17AE780E090E05C
:1007C000A50194010E94D40469017A01E1E0CE1AE6
:1007D000D108E108F10884E0FFEFCF16D104E1046D
:1007E000F104A1F098F0730162019AE0F594E794A6
:1007F000D794C7949A95D1F7F1E0CF1AD108E108C0
:10080000F10885E003C081E0111121CF95B5987FF3
:10081000892B85BD9101220F331FA4EFB1E00E9407
:10082000F30428EE33E040E050E00E94B2041130BF
:1008300009F476C0123009F485C011110EC0C7BC8E
:10084000209315013093160140931701509318011E
:1008500080916E00826080936E000E9402014B01C5
:100860005C0128EEC22E23E0D22EE12CF12C0E9456
:100870000201681979098A099B09683E734081055C
:100880009105A8F3F1E0CF1AD108E108F10828EEAC
:10089000820E23E0921EA11CB11CC114D104E104FC
:1008A000F10429F78F819885E985FA858E179F07CE
:1008B00009F011CEE2CE82E0A7CFB12CA12C60E0EE
:1008C00072E18AE790E0A50191010E94D4046901D8
:1008D0007A0181E0C81AD108E108F108C114D104F5
:1008E00091E0E906F1045CF491E0113009F092CF57
:1008F00080918100887F892B809381008BCF68E471
:1009000078EE81E090E0A50191010E94D404690194
:100910007A01E1E0CE1AD108E108F10893E0E5CFD1
:10092000D0928900C0928800209311013093120167
:10093000409313015093140180916F008260809363
:100940006F008BCFC092B30020930D0130930E0146
:1009500040930F015093100180917000826080934A
:1009600070007BCFA1E21A2EAA1BBB1BFD010DC09C
:10097000AA1FBB1FEE1FFF1FA217B307E407F5074F
:1009800020F0A21BB30BE40BF50B661F771F881F2B
:10099000991F1A9469F760957095809590959B01C1
:1009A000AC01BD01CF010895052E97FB1EF4009404
:1009B0000E94EB0457FD07D00E94B20407FC03D04D
:1009C0004EF40C94EB0450954095309521953F4F93
:1009D0004F4F5F4F089590958095709561957F4F2B
:1009E0008F4F9F4F0895A29FB001B39FC001A39F57
:1009F000700D811D1124911DB29F700D811D112458
:080A0000911D0895F894FFCF49
:080A0800FF06014A018801000C
:00000001FF
